{
  "_format": "hh-sol-artifact-1",
  "contractName": "Marketplace",
  "sourceName": "contracts/Marketplace.sol",
  "abi": [
    {
      "inputs": [],
      "stateMutability": "nonpayable",
      "type": "constructor"
    },
    {
      "inputs": [
        {
          "internalType": "address",
          "name": "sender",
          "type": "address"
        },
        {
          "internalType": "uint256",
          "name": "tokenId",
          "type": "uint256"
        },
        {
          "internalType": "address",
          "name": "owner",
          "type": "address"
        }
      ],
      "name": "ERC721IncorrectOwner",
      "type": "error"
    },
    {
      "inputs": [
        {
          "internalType": "address",
          "name": "operator",
          "type": "address"
        },
        {
          "internalType": "uint256",
          "name": "tokenId",
          "type": "uint256"
        }
      ],
      "name": "ERC721InsufficientApproval",
      "type": "error"
    },
    {
      "inputs": [
        {
          "internalType": "address",
          "name": "approver",
          "type": "address"
        }
      ],
      "name": "ERC721InvalidApprover",
      "type": "error"
    },
    {
      "inputs": [
        {
          "internalType": "address",
          "name": "operator",
          "type": "address"
        }
      ],
      "name": "ERC721InvalidOperator",
      "type": "error"
    },
    {
      "inputs": [
        {
          "internalType": "address",
          "name": "owner",
          "type": "address"
        }
      ],
      "name": "ERC721InvalidOwner",
      "type": "error"
    },
    {
      "inputs": [
        {
          "internalType": "address",
          "name": "receiver",
          "type": "address"
        }
      ],
      "name": "ERC721InvalidReceiver",
      "type": "error"
    },
    {
      "inputs": [
        {
          "internalType": "address",
          "name": "sender",
          "type": "address"
        }
      ],
      "name": "ERC721InvalidSender",
      "type": "error"
    },
    {
      "inputs": [
        {
          "internalType": "uint256",
          "name": "tokenId",
          "type": "uint256"
        }
      ],
      "name": "ERC721NonexistentToken",
      "type": "error"
    },
    {
      "anonymous": false,
      "inputs": [
        {
          "indexed": true,
          "internalType": "address",
          "name": "owner",
          "type": "address"
        },
        {
          "indexed": true,
          "internalType": "address",
          "name": "approved",
          "type": "address"
        },
        {
          "indexed": true,
          "internalType": "uint256",
          "name": "tokenId",
          "type": "uint256"
        }
      ],
      "name": "Approval",
      "type": "event"
    },
    {
      "anonymous": false,
      "inputs": [
        {
          "indexed": true,
          "internalType": "address",
          "name": "owner",
          "type": "address"
        },
        {
          "indexed": true,
          "internalType": "address",
          "name": "operator",
          "type": "address"
        },
        {
          "indexed": false,
          "internalType": "bool",
          "name": "approved",
          "type": "bool"
        }
      ],
      "name": "ApprovalForAll",
      "type": "event"
    },
    {
      "anonymous": false,
      "inputs": [
        {
          "indexed": false,
          "internalType": "uint256",
          "name": "_fromTokenId",
          "type": "uint256"
        },
        {
          "indexed": false,
          "internalType": "uint256",
          "name": "_toTokenId",
          "type": "uint256"
        }
      ],
      "name": "BatchMetadataUpdate",
      "type": "event"
    },
    {
      "anonymous": false,
      "inputs": [
        {
          "indexed": false,
          "internalType": "uint256",
          "name": "_tokenId",
          "type": "uint256"
        }
      ],
      "name": "MetadataUpdate",
      "type": "event"
    },
    {
      "anonymous": false,
      "inputs": [
        {
          "indexed": true,
          "internalType": "uint256",
          "name": "tokenId",
          "type": "uint256"
        },
        {
          "indexed": false,
          "internalType": "address payable",
          "name": "seller",
          "type": "address"
        },
        {
          "indexed": false,
          "internalType": "address payable",
          "name": "owner",
          "type": "address"
        },
        {
          "indexed": false,
          "internalType": "uint256",
          "name": "price",
          "type": "uint256"
        },
        {
          "indexed": false,
          "internalType": "address[]",
          "name": "subscribers",
          "type": "address[]"
        },
        {
          "indexed": false,
          "internalType": "uint256",
          "name": "likes",
          "type": "uint256"
        },
        {
          "indexed": false,
          "internalType": "string",
          "name": "title",
          "type": "string"
        },
        {
          "indexed": false,
          "internalType": "string",
          "name": "description",
          "type": "string"
        }
      ],
      "name": "NftStructCreated",
      "type": "event"
    },
    {
      "anonymous": false,
      "inputs": [
        {
          "indexed": true,
          "internalType": "uint256",
          "name": "tokenId",
          "type": "uint256"
        },
        {
          "indexed": false,
          "internalType": "uint64",
          "name": "expiration",
          "type": "uint64"
        }
      ],
      "name": "SubscriptionUpdate",
      "type": "event"
    },
    {
      "anonymous": false,
      "inputs": [
        {
          "indexed": true,
          "internalType": "address",
          "name": "from",
          "type": "address"
        },
        {
          "indexed": true,
          "internalType": "address",
          "name": "to",
          "type": "address"
        },
        {
          "indexed": true,
          "internalType": "uint256",
          "name": "tokenId",
          "type": "uint256"
        }
      ],
      "name": "Transfer",
      "type": "event"
    },
    {
      "inputs": [],
      "name": "addProfile",
      "outputs": [],
      "stateMutability": "nonpayable",
      "type": "function"
    },
    {
      "inputs": [
        {
          "internalType": "address",
          "name": "to",
          "type": "address"
        },
        {
          "internalType": "uint256",
          "name": "tokenId",
          "type": "uint256"
        }
      ],
      "name": "approve",
      "outputs": [],
      "stateMutability": "nonpayable",
      "type": "function"
    },
    {
      "inputs": [
        {
          "internalType": "address",
          "name": "owner",
          "type": "address"
        }
      ],
      "name": "balanceOf",
      "outputs": [
        {
          "internalType": "uint256",
          "name": "",
          "type": "uint256"
        }
      ],
      "stateMutability": "view",
      "type": "function"
    },
    {
      "inputs": [
        {
          "internalType": "uint256",
          "name": "_tokenId",
          "type": "uint256"
        }
      ],
      "name": "buySubscription",
      "outputs": [
        {
          "internalType": "bool",
          "name": "",
          "type": "bool"
        }
      ],
      "stateMutability": "payable",
      "type": "function"
    },
    {
      "inputs": [
        {
          "internalType": "uint256",
          "name": "_tokenId",
          "type": "uint256"
        }
      ],
      "name": "cancelSubscription",
      "outputs": [],
      "stateMutability": "payable",
      "type": "function"
    },
    {
      "inputs": [
        {
          "internalType": "string",
          "name": "_tokenURI",
          "type": "string"
        },
        {
          "internalType": "string",
          "name": "_title",
          "type": "string"
        },
        {
          "internalType": "string",
          "name": "_description",
          "type": "string"
        }
      ],
      "name": "createNFT",
      "outputs": [],
      "stateMutability": "nonpayable",
      "type": "function"
    },
    {
      "inputs": [
        {
          "internalType": "uint256",
          "name": "_tokenId",
          "type": "uint256"
        }
      ],
      "name": "expiresAt",
      "outputs": [
        {
          "internalType": "uint64",
          "name": "",
          "type": "uint64"
        }
      ],
      "stateMutability": "view",
      "type": "function"
    },
    {
      "inputs": [
        {
          "internalType": "address",
          "name": "_account",
          "type": "address"
        }
      ],
      "name": "followProfile",
      "outputs": [],
      "stateMutability": "nonpayable",
      "type": "function"
    },
    {
      "inputs": [
        {
          "internalType": "uint256",
          "name": "tokenId",
          "type": "uint256"
        }
      ],
      "name": "getApproved",
      "outputs": [
        {
          "internalType": "address",
          "name": "",
          "type": "address"
        }
      ],
      "stateMutability": "view",
      "type": "function"
    },
    {
      "inputs": [],
      "name": "getCollectables",
      "outputs": [
        {
          "components": [
            {
              "internalType": "uint256",
              "name": "tokenId",
              "type": "uint256"
            },
            {
              "internalType": "address payable",
              "name": "seller",
              "type": "address"
            },
            {
              "internalType": "address payable",
              "name": "owner",
              "type": "address"
            },
            {
              "internalType": "uint256",
              "name": "price",
              "type": "uint256"
            },
            {
              "internalType": "address[]",
              "name": "subscribers",
              "type": "address[]"
            },
            {
              "internalType": "uint256",
              "name": "likes",
              "type": "uint256"
            },
            {
              "internalType": "string",
              "name": "title",
              "type": "string"
            },
            {
              "internalType": "string",
              "name": "description",
              "type": "string"
            },
            {
              "internalType": "string",
              "name": "tokenUri",
              "type": "string"
            }
          ],
          "internalType": "struct Marketplace.nftStruct[]",
          "name": "",
          "type": "tuple[]"
        }
      ],
      "stateMutability": "view",
      "type": "function"
    },
    {
      "inputs": [
        {
          "internalType": "uint256",
          "name": "_tokenId",
          "type": "uint256"
        }
      ],
      "name": "getIndividualNFT",
      "outputs": [
        {
          "components": [
            {
              "internalType": "uint256",
              "name": "tokenId",
              "type": "uint256"
            },
            {
              "internalType": "address payable",
              "name": "seller",
              "type": "address"
            },
            {
              "internalType": "address payable",
              "name": "owner",
              "type": "address"
            },
            {
              "internalType": "uint256",
              "name": "price",
              "type": "uint256"
            },
            {
              "internalType": "address[]",
              "name": "subscribers",
              "type": "address[]"
            },
            {
              "internalType": "uint256",
              "name": "likes",
              "type": "uint256"
            },
            {
              "internalType": "string",
              "name": "title",
              "type": "string"
            },
            {
              "internalType": "string",
              "name": "description",
              "type": "string"
            },
            {
              "internalType": "string",
              "name": "tokenUri",
              "type": "string"
            }
          ],
          "internalType": "struct Marketplace.nftStruct",
          "name": "",
          "type": "tuple"
        }
      ],
      "stateMutability": "view",
      "type": "function"
    },
    {
      "inputs": [],
      "name": "getNfts",
      "outputs": [
        {
          "components": [
            {
              "internalType": "uint256",
              "name": "tokenId",
              "type": "uint256"
            },
            {
              "internalType": "address payable",
              "name": "seller",
              "type": "address"
            },
            {
              "internalType": "address payable",
              "name": "owner",
              "type": "address"
            },
            {
              "internalType": "uint256",
              "name": "price",
              "type": "uint256"
            },
            {
              "internalType": "address[]",
              "name": "subscribers",
              "type": "address[]"
            },
            {
              "internalType": "uint256",
              "name": "likes",
              "type": "uint256"
            },
            {
              "internalType": "string",
              "name": "title",
              "type": "string"
            },
            {
              "internalType": "string",
              "name": "description",
              "type": "string"
            },
            {
              "internalType": "string",
              "name": "tokenUri",
              "type": "string"
            }
          ],
          "internalType": "struct Marketplace.nftStruct[]",
          "name": "",
          "type": "tuple[]"
        }
      ],
      "stateMutability": "view",
      "type": "function"
    },
    {
      "inputs": [],
      "name": "getNumberOfUsers",
      "outputs": [
        {
          "internalType": "uint256",
          "name": "",
          "type": "uint256"
        }
      ],
      "stateMutability": "view",
      "type": "function"
    },
    {
      "inputs": [],
      "name": "getSubscriptions",
      "outputs": [
        {
          "components": [
            {
              "internalType": "uint256",
              "name": "tokenId",
              "type": "uint256"
            },
            {
              "internalType": "address payable",
              "name": "seller",
              "type": "address"
            },
            {
              "internalType": "address payable",
              "name": "owner",
              "type": "address"
            },
            {
              "internalType": "uint256",
              "name": "price",
              "type": "uint256"
            },
            {
              "internalType": "address[]",
              "name": "subscribers",
              "type": "address[]"
            },
            {
              "internalType": "uint256",
              "name": "likes",
              "type": "uint256"
            },
            {
              "internalType": "string",
              "name": "title",
              "type": "string"
            },
            {
              "internalType": "string",
              "name": "description",
              "type": "string"
            },
            {
              "internalType": "string",
              "name": "tokenUri",
              "type": "string"
            }
          ],
          "internalType": "struct Marketplace.nftStruct[]",
          "name": "",
          "type": "tuple[]"
        }
      ],
      "stateMutability": "view",
      "type": "function"
    },
    {
      "inputs": [
        {
          "internalType": "address",
          "name": "owner",
          "type": "address"
        },
        {
          "internalType": "address",
          "name": "operator",
          "type": "address"
        }
      ],
      "name": "isApprovedForAll",
      "outputs": [
        {
          "internalType": "bool",
          "name": "",
          "type": "bool"
        }
      ],
      "stateMutability": "view",
      "type": "function"
    },
    {
      "inputs": [
        {
          "internalType": "uint256",
          "name": "_tokenId",
          "type": "uint256"
        }
      ],
      "name": "isRenewable",
      "outputs": [
        {
          "internalType": "bool",
          "name": "",
          "type": "bool"
        }
      ],
      "stateMutability": "pure",
      "type": "function"
    },
    {
      "inputs": [
        {
          "internalType": "uint256",
          "name": "_tokenId",
          "type": "uint256"
        }
      ],
      "name": "likeSubscription",
      "outputs": [],
      "stateMutability": "nonpayable",
      "type": "function"
    },
    {
      "inputs": [],
      "name": "name",
      "outputs": [
        {
          "internalType": "string",
          "name": "",
          "type": "string"
        }
      ],
      "stateMutability": "view",
      "type": "function"
    },
    {
      "inputs": [
        {
          "internalType": "uint256",
          "name": "tokenId",
          "type": "uint256"
        }
      ],
      "name": "ownerOf",
      "outputs": [
        {
          "internalType": "address",
          "name": "",
          "type": "address"
        }
      ],
      "stateMutability": "view",
      "type": "function"
    },
    {
      "inputs": [
        {
          "internalType": "uint256",
          "name": "",
          "type": "uint256"
        }
      ],
      "name": "profiles",
      "outputs": [
        {
          "internalType": "address",
          "name": "self",
          "type": "address"
        }
      ],
      "stateMutability": "view",
      "type": "function"
    },
    {
      "inputs": [
        {
          "internalType": "uint256",
          "name": "_tokenId",
          "type": "uint256"
        },
        {
          "internalType": "uint64",
          "name": "duration",
          "type": "uint64"
        }
      ],
      "name": "renewSubscription",
      "outputs": [],
      "stateMutability": "payable",
      "type": "function"
    },
    {
      "inputs": [
        {
          "internalType": "address",
          "name": "from",
          "type": "address"
        },
        {
          "internalType": "address",
          "name": "to",
          "type": "address"
        },
        {
          "internalType": "uint256",
          "name": "tokenId",
          "type": "uint256"
        }
      ],
      "name": "safeTransferFrom",
      "outputs": [],
      "stateMutability": "nonpayable",
      "type": "function"
    },
    {
      "inputs": [
        {
          "internalType": "address",
          "name": "from",
          "type": "address"
        },
        {
          "internalType": "address",
          "name": "to",
          "type": "address"
        },
        {
          "internalType": "uint256",
          "name": "tokenId",
          "type": "uint256"
        },
        {
          "internalType": "bytes",
          "name": "data",
          "type": "bytes"
        }
      ],
      "name": "safeTransferFrom",
      "outputs": [],
      "stateMutability": "nonpayable",
      "type": "function"
    },
    {
      "inputs": [
        {
          "internalType": "uint256",
          "name": "_tokenId",
          "type": "uint256"
        },
        {
          "internalType": "uint64",
          "name": "duration",
          "type": "uint64"
        }
      ],
      "name": "sellSubscription",
      "outputs": [
        {
          "internalType": "uint256",
          "name": "",
          "type": "uint256"
        }
      ],
      "stateMutability": "payable",
      "type": "function"
    },
    {
      "inputs": [
        {
          "internalType": "address",
          "name": "operator",
          "type": "address"
        },
        {
          "internalType": "bool",
          "name": "approved",
          "type": "bool"
        }
      ],
      "name": "setApprovalForAll",
      "outputs": [],
      "stateMutability": "nonpayable",
      "type": "function"
    },
    {
      "inputs": [
        {
          "internalType": "bytes4",
          "name": "interfaceId",
          "type": "bytes4"
        }
      ],
      "name": "supportsInterface",
      "outputs": [
        {
          "internalType": "bool",
          "name": "",
          "type": "bool"
        }
      ],
      "stateMutability": "view",
      "type": "function"
    },
    {
      "inputs": [],
      "name": "symbol",
      "outputs": [
        {
          "internalType": "string",
          "name": "",
          "type": "string"
        }
      ],
      "stateMutability": "view",
      "type": "function"
    },
    {
      "inputs": [
        {
          "internalType": "uint256",
          "name": "tokenId",
          "type": "uint256"
        }
      ],
      "name": "tokenURI",
      "outputs": [
        {
          "internalType": "string",
          "name": "",
          "type": "string"
        }
      ],
      "stateMutability": "view",
      "type": "function"
    },
    {
      "inputs": [
        {
          "internalType": "address",
          "name": "from",
          "type": "address"
        },
        {
          "internalType": "address",
          "name": "to",
          "type": "address"
        },
        {
          "internalType": "uint256",
          "name": "tokenId",
          "type": "uint256"
        }
      ],
      "name": "transferFrom",
      "outputs": [],
      "stateMutability": "nonpayable",
      "type": "function"
    },
    {
      "inputs": [
        {
          "internalType": "address",
          "name": "_account",
          "type": "address"
        }
      ],
      "name": "unfollowProfile",
      "outputs": [],
      "stateMutability": "view",
      "type": "function"
    },
    {
      "inputs": [
        {
          "internalType": "uint256",
          "name": "_tokenId",
          "type": "uint256"
        }
      ],
      "name": "unlikeSubscription",
      "outputs": [],
      "stateMutability": "nonpayable",
      "type": "function"
    }
  ],
  "bytecode": "0x60806040523480156200001157600080fd5b506040518060400160405280601c81526020017f4e4654204d6167617a696e6520616e64204d61726b6574706c616365000000008152506040518060400160405280600181526020017f4d0000000000000000000000000000000000000000000000000000000000000081525081600190816200008f91906200035e565b508060029081620000a191906200035e565b505050620000b66008620000ce60201b60201c565b620000c8600a620000ce60201b60201c565b62000445565b6001816000016000828254019250508190555050565b600081519050919050565b7f4e487b7100000000000000000000000000000000000000000000000000000000600052604160045260246000fd5b7f4e487b7100000000000000000000000000000000000000000000000000000000600052602260045260246000fd5b600060028204905060018216806200016657607f821691505b6020821081036200017c576200017b6200011e565b5b50919050565b60008190508160005260206000209050919050565b60006020601f8301049050919050565b600082821b905092915050565b600060088302620001e67fffffffffffffffffffffffffffffffffffffffffffffffffffffffffffffffff82620001a7565b620001f28683620001a7565b95508019841693508086168417925050509392505050565b6000819050919050565b6000819050919050565b60006200023f6200023962000233846200020a565b62000214565b6200020a565b9050919050565b6000819050919050565b6200025b836200021e565b620002736200026a8262000246565b848454620001b4565b825550505050565b600090565b6200028a6200027b565b6200029781848462000250565b505050565b5b81811015620002bf57620002b360008262000280565b6001810190506200029d565b5050565b601f8211156200030e57620002d88162000182565b620002e38462000197565b81016020851015620002f3578190505b6200030b620003028562000197565b8301826200029c565b50505b505050565b600082821c905092915050565b6000620003336000198460080262000313565b1980831691505092915050565b60006200034e838362000320565b9150826002028217905092915050565b6200036982620000e4565b67ffffffffffffffff811115620003855762000384620000ef565b5b6200039182546200014d565b6200039e828285620002c3565b600060209050601f831160018114620003d65760008415620003c1578287015190505b620003cd858262000340565b8655506200043d565b601f198416620003e68662000182565b60005b828110156200041057848901518255600182019150602085019450602081019050620003e9565b868310156200043057848901516200042c601f89168262000320565b8355505b6001600288020188555050505b505050505050565b6150d280620004556000396000f3fe6080604052600436106101d85760003560e01c806370a0823111610102578063baef978711610095578063c9df908111610064578063c9df9081146106bc578063cde317af146106e5578063d8cb55e314610722578063e985e9c51461074d576101d8565b8063baef9787146105e9578063c36fe3d614610619578063c7e7709d14610656578063c87b56dd1461067f576101d8565b806395d89b41116100d157806395d89b41146105435780639f8e9dbc1461056e578063a22cb46514610597578063b88d4fde146105c0576101d8565b806370a082311461048457806374bde7ea146104c157806376856319146104ea578063776ce86814610527576101d8565b8063212350831161017a57806342842e0e1161014957806342842e0e146103c357806342b23193146103ec5780634d0092881461041c5780636352211e14610447576101d8565b8063212350831461032a57806323b872dd146103465780633725f2d31461036f5780633b47a9ac14610398576101d8565b806308ffc4a9116101b657806308ffc4a914610282578063095ea7b3146102ad57806317c95709146102d65780631c62094c14610313576101d8565b806301ffc9a7146101dd57806306fdde031461021a578063081812fc14610245575b600080fd5b3480156101e957600080fd5b5061020460048036038101906101ff9190613c50565b61078a565b6040516102119190613c98565b60405180910390f35b34801561022657600080fd5b5061022f6107eb565b60405161023c9190613d43565b60405180910390f35b34801561025157600080fd5b5061026c60048036038101906102679190613d9b565b61087d565b6040516102799190613e09565b60405180910390f35b34801561028e57600080fd5b50610297610899565b6040516102a491906140f8565b60405180910390f35b3480156102b957600080fd5b506102d460048036038101906102cf9190614146565b610d3b565b005b3480156102e257600080fd5b506102fd60048036038101906102f89190613d9b565b610d51565b60405161030a91906141a9565b60405180910390f35b34801561031f57600080fd5b50610328610d81565b005b610344600480360381019061033f9190613d9b565b610e8a565b005b34801561035257600080fd5b5061036d600480360381019061036891906141c4565b610eef565b005b34801561037b57600080fd5b5061039660048036038101906103919190614217565b610ff1565b005b3480156103a457600080fd5b506103ad6111dc565b6040516103ba91906140f8565b60405180910390f35b3480156103cf57600080fd5b506103ea60048036038101906103e591906141c4565b611624565b005b61040660048036038101906104019190614270565b611644565b60405161041391906142bf565b60405180910390f35b34801561042857600080fd5b5061043161177b565b60405161043e91906142bf565b60405180910390f35b34801561045357600080fd5b5061046e60048036038101906104699190613d9b565b611791565b60405161047b9190613e09565b60405180910390f35b34801561049057600080fd5b506104ab60048036038101906104a69190614217565b6117a3565b6040516104b891906142bf565b60405180910390f35b3480156104cd57600080fd5b506104e860048036038101906104e39190613d9b565b61185d565b005b3480156104f657600080fd5b50610511600480360381019061050c9190613d9b565b61188e565b60405161051e91906143b4565b60405180910390f35b610541600480360381019061053c9190614270565b611bca565b005b34801561054f57600080fd5b50610558611ce9565b6040516105659190613d43565b60405180910390f35b34801561057a57600080fd5b506105956004803603810190610590919061450b565b611d7b565b005b3480156105a357600080fd5b506105be60048036038101906105b991906145de565b611db9565b005b3480156105cc57600080fd5b506105e760048036038101906105e291906146bf565b611dcf565b005b61060360048036038101906105fe9190613d9b565b611dec565b6040516106109190613c98565b60405180910390f35b34801561062557600080fd5b50610640600480360381019061063b9190613d9b565b611eeb565b60405161064d9190613e09565b60405180910390f35b34801561066257600080fd5b5061067d60048036038101906106789190614217565b611f29565b005b34801561068b57600080fd5b506106a660048036038101906106a19190613d9b565b612125565b6040516106b39190613d43565b60405180910390f35b3480156106c857600080fd5b506106e360048036038101906106de9190613d9b565b612238565b005b3480156106f157600080fd5b5061070c60048036038101906107079190613d9b565b612269565b6040516107199190613c98565b60405180910390f35b34801561072e57600080fd5b50610737612274565b60405161074491906140f8565b60405180910390f35b34801561075957600080fd5b50610774600480360381019061076f9190614742565b6126bc565b6040516107819190613c98565b60405180910390f35b6000634906490660e01b7bffffffffffffffffffffffffffffffffffffffffffffffffffffffff1916827bffffffffffffffffffffffffffffffffffffffffffffffffffffffff191614806107e457506107e382612750565b5b9050919050565b6060600180546107fa906147b1565b80601f0160208091040260200160405190810160405280929190818152602001828054610826906147b1565b80156108735780601f1061084857610100808354040283529160200191610873565b820191906000526020600020905b81548152906001019060200180831161085657829003601f168201915b5050505050905090565b600061088882612832565b50610892826128ba565b9050919050565b606060006108a760086128f7565b905060008167ffffffffffffffff8111156108c5576108c46143e0565b5b6040519080825280602002602001820160405280156108fe57816020015b6108eb613b6c565b8152602001906001900390816108e35790505b5090506000600190505b82811015610d32576000600b600083815260200190815260200160002060040180549050905060005b81811015610d1d573373ffffffffffffffffffffffffffffffffffffffff16600b60008581526020019081526020016000206004018281548110610978576109776147e2565b5b9060005260206000200160009054906101000a900473ffffffffffffffffffffffffffffffffffffffff1673ffffffffffffffffffffffffffffffffffffffff1603610d0a57600b600084815260200190815260200160002060405180610120016040529081600082015481526020016001820160009054906101000a900473ffffffffffffffffffffffffffffffffffffffff1673ffffffffffffffffffffffffffffffffffffffff1673ffffffffffffffffffffffffffffffffffffffff1681526020016002820160009054906101000a900473ffffffffffffffffffffffffffffffffffffffff1673ffffffffffffffffffffffffffffffffffffffff1673ffffffffffffffffffffffffffffffffffffffff1681526020016003820154815260200160048201805480602002602001604051908101604052809291908181526020018280548015610b2257602002820191906000526020600020905b8160009054906101000a900473ffffffffffffffffffffffffffffffffffffffff1673ffffffffffffffffffffffffffffffffffffffff1681526020019060010190808311610ad8575b5050505050815260200160058201548152602001600682018054610b45906147b1565b80601f0160208091040260200160405190810160405280929190818152602001828054610b71906147b1565b8015610bbe5780601f10610b9357610100808354040283529160200191610bbe565b820191906000526020600020905b815481529060010190602001808311610ba157829003601f168201915b50505050508152602001600782018054610bd7906147b1565b80601f0160208091040260200160405190810160405280929190818152602001828054610c03906147b1565b8015610c505780601f10610c2557610100808354040283529160200191610c50565b820191906000526020600020905b815481529060010190602001808311610c3357829003601f168201915b50505050508152602001600882018054610c69906147b1565b80601f0160208091040260200160405190810160405280929190818152602001828054610c95906147b1565b8015610ce25780601f10610cb757610100808354040283529160200191610ce2565b820191906000526020600020905b815481529060010190602001808311610cc557829003601f168201915b505050505081525050848481518110610cfe57610cfd6147e2565b5b60200260200101819052505b8080610d1590614840565b915050610931565b50508080610d2a90614840565b915050610908565b50809250505090565b610d4d8282610d48612905565b61290d565b5050565b600080600083815260200190815260200160002060009054906101000a900467ffffffffffffffff169050919050565b6000610d8d600a6128f7565b9050600080600190505b82811015610e20573373ffffffffffffffffffffffffffffffffffffffff16600c600083815260200190815260200160002060000160009054906101000a900473ffffffffffffffffffffffffffffffffffffffff1673ffffffffffffffffffffffffffffffffffffffff1603610e0d57600191505b8080610e1890614840565b915050610d97565b5080610e7c5733600c600084815260200190815260200160002060000160006101000a81548173ffffffffffffffffffffffffffffffffffffffff021916908373ffffffffffffffffffffffffffffffffffffffff1602179055505b610e86600a61291f565b5050565b60008082815260200190815260200160002060006101000a81549067ffffffffffffffff0219169055807f2ec2be2c4b90c2cf13ecb6751a24daed6bb741ae5ed3f7371aabf9402f6d62e86000604051610ee491906148cd565b60405180910390a250565b600073ffffffffffffffffffffffffffffffffffffffff168273ffffffffffffffffffffffffffffffffffffffff1603610f615760006040517f64a0ae92000000000000000000000000000000000000000000000000000000008152600401610f589190613e09565b60405180910390fd5b6000610f758383610f70612905565b612935565b90508373ffffffffffffffffffffffffffffffffffffffff168173ffffffffffffffffffffffffffffffffffffffff1614610feb578382826040517f64283d7b000000000000000000000000000000000000000000000000000000008152600401610fe2939291906148e8565b60405180910390fd5b50505050565b6000610ffd600a6128f7565b90506000600190505b818110156111d7576110e9600c600083815260200190815260200160002060000160009054906101000a900473ffffffffffffffffffffffffffffffffffffffff16600c60008481526020019081526020016000206001018054806020026020016040519081016040528092919081815260200182805480156110de57602002820191906000526020600020905b8160009054906101000a900473ffffffffffffffffffffffffffffffffffffffff1673ffffffffffffffffffffffffffffffffffffffff1681526020019060010190808311611094575b505050505085612b4f565b6111c4600c600083815260200190815260200160002060000160009054906101000a900473ffffffffffffffffffffffffffffffffffffffff16600c60008481526020019081526020016000206002018054806020026020016040519081016040528092919081815260200182805480156111b957602002820191906000526020600020905b8160009054906101000a900473ffffffffffffffffffffffffffffffffffffffff1673ffffffffffffffffffffffffffffffffffffffff168152602001906001019080831161116f575b505050505033612c31565b80806111cf90614840565b915050611006565b505050565b606060006111ea60086128f7565b905060008167ffffffffffffffff811115611208576112076143e0565b5b60405190808252806020026020018201604052801561124157816020015b61122e613b6c565b8152602001906001900390816112265790505b5090506000600190505b8281101561161b573073ffffffffffffffffffffffffffffffffffffffff16600b600083815260200190815260200160002060020160009054906101000a900473ffffffffffffffffffffffffffffffffffffffff1673ffffffffffffffffffffffffffffffffffffffff160361160857600b600082815260200190815260200160002060405180610120016040529081600082015481526020016001820160009054906101000a900473ffffffffffffffffffffffffffffffffffffffff1673ffffffffffffffffffffffffffffffffffffffff1673ffffffffffffffffffffffffffffffffffffffff1681526020016002820160009054906101000a900473ffffffffffffffffffffffffffffffffffffffff1673ffffffffffffffffffffffffffffffffffffffff1673ffffffffffffffffffffffffffffffffffffffff168152602001600382015481526020016004820180548060200260200160405190810160405280929190818152602001828054801561142057602002820191906000526020600020905b8160009054906101000a900473ffffffffffffffffffffffffffffffffffffffff1673ffffffffffffffffffffffffffffffffffffffff16815260200190600101908083116113d6575b5050505050815260200160058201548152602001600682018054611443906147b1565b80601f016020809104026020016040519081016040528092919081815260200182805461146f906147b1565b80156114bc5780601f10611491576101008083540402835291602001916114bc565b820191906000526020600020905b81548152906001019060200180831161149f57829003601f168201915b505050505081526020016007820180546114d5906147b1565b80601f0160208091040260200160405190810160405280929190818152602001828054611501906147b1565b801561154e5780601f106115235761010080835404028352916020019161154e565b820191906000526020600020905b81548152906001019060200180831161153157829003601f168201915b50505050508152602001600882018054611567906147b1565b80601f0160208091040260200160405190810160405280929190818152602001828054611593906147b1565b80156115e05780601f106115b5576101008083540402835291602001916115e0565b820191906000526020600020905b8154815290600101906020018083116115c357829003601f168201915b5050505050815250508282815181106115fc576115fb6147e2565b5b60200260200101819052505b808061161390614840565b91505061124b565b50809250505090565b61163f83838360405180602001604052806000815250611dcf565b505050565b600061165961165284611791565b3385612d13565b611698576040517f08c379a000000000000000000000000000000000000000000000000000000000815260040161168f9061496b565b60405180910390fd5b6116a3333085612dd4565b670de0b6b3a7640000346116b791906149ba565b600b60008581526020019081526020016000206003018190555030600b600085815260200190815260200160002060020160006101000a81548173ffffffffffffffffffffffffffffffffffffffff021916908373ffffffffffffffffffffffffffffffffffffffff1602179055508160008085815260200190815260200160002060006101000a81548167ffffffffffffffff021916908367ffffffffffffffff160217905550611769600961291f565b61177360096128f7565b905092915050565b600080611788600a6128f7565b90508091505090565b600061179c82612832565b9050919050565b60008073ffffffffffffffffffffffffffffffffffffffff168273ffffffffffffffffffffffffffffffffffffffff16036118165760006040517f89c62b6400000000000000000000000000000000000000000000000000000000815260040161180d9190613e09565b60405180910390fd5b600460008373ffffffffffffffffffffffffffffffffffffffff1673ffffffffffffffffffffffffffffffffffffffff168152602001908152602001600020549050919050565b6001600b6000838152602001908152602001600020600501600082825461188491906149eb565b9250508190555050565b611896613b6c565b600b600083815260200190815260200160002060405180610120016040529081600082015481526020016001820160009054906101000a900473ffffffffffffffffffffffffffffffffffffffff1673ffffffffffffffffffffffffffffffffffffffff1673ffffffffffffffffffffffffffffffffffffffff1681526020016002820160009054906101000a900473ffffffffffffffffffffffffffffffffffffffff1673ffffffffffffffffffffffffffffffffffffffff1673ffffffffffffffffffffffffffffffffffffffff16815260200160038201548152602001600482018054806020026020016040519081016040528092919081815260200182805480156119fa57602002820191906000526020600020905b8160009054906101000a900473ffffffffffffffffffffffffffffffffffffffff1673ffffffffffffffffffffffffffffffffffffffff16815260200190600101908083116119b0575b5050505050815260200160058201548152602001600682018054611a1d906147b1565b80601f0160208091040260200160405190810160405280929190818152602001828054611a49906147b1565b8015611a965780601f10611a6b57610100808354040283529160200191611a96565b820191906000526020600020905b815481529060010190602001808311611a7957829003601f168201915b50505050508152602001600782018054611aaf906147b1565b80601f0160208091040260200160405190810160405280929190818152602001828054611adb906147b1565b8015611b285780601f10611afd57610100808354040283529160200191611b28565b820191906000526020600020905b815481529060010190602001808311611b0b57829003601f168201915b50505050508152602001600882018054611b41906147b1565b80601f0160208091040260200160405190810160405280929190818152602001828054611b6d906147b1565b8015611bba5780601f10611b8f57610100808354040283529160200191611bba565b820191906000526020600020905b815481529060010190602001808311611b9d57829003601f168201915b5050505050815250509050919050565b600080600084815260200190815260200160002060009054906101000a900467ffffffffffffffff1690506000808267ffffffffffffffff1603611c1b578242611c149190614a1f565b9050611c72565b611c2484612269565b611c63576040517f08c379a0000000000000000000000000000000000000000000000000000000008152600401611c5a90614aa7565b60405180910390fd5b8282611c6f9190614a1f565b90505b8060008086815260200190815260200160002060006101000a81548167ffffffffffffffff021916908367ffffffffffffffff160217905550837f2ec2be2c4b90c2cf13ecb6751a24daed6bb741ae5ed3f7371aabf9402f6d62e882604051611cdb91906141a9565b60405180910390a250505050565b606060028054611cf8906147b1565b80601f0160208091040260200160405190810160405280929190818152602001828054611d24906147b1565b8015611d715780601f10611d4657610100808354040283529160200191611d71565b820191906000526020600020905b815481529060010190602001808311611d5457829003601f168201915b5050505050905090565b6000611d8760086128f7565b9050611d933382612f41565b611d9d818561303a565b611da981848487613096565b611db3600861291f565b50505050565b611dcb611dc4612905565b8383613275565b5050565b611dda848484610eef565b611de6848484846133e4565b50505050565b6000600b600083815260200190815260200160002060010160009054906101000a900473ffffffffffffffffffffffffffffffffffffffff1673ffffffffffffffffffffffffffffffffffffffff166108fc349081150290604051600060405180830381858888f19350505050158015611e6a573d6000803e3d6000fd5b50600b6000838152602001908152602001600020600401339080600181540180825580915050600190039060005260206000200160009091909190916101000a81548173ffffffffffffffffffffffffffffffffffffffff021916908373ffffffffffffffffffffffffffffffffffffffff16021790555060019050919050565b600c6020528060005260406000206000915090508060000160009054906101000a900473ffffffffffffffffffffffffffffffffffffffff16905081565b6000611f35600a6128f7565b90506000600190505b81811015612120573373ffffffffffffffffffffffffffffffffffffffff16600c600083815260200190815260200160002060000160009054906101000a900473ffffffffffffffffffffffffffffffffffffffff1673ffffffffffffffffffffffffffffffffffffffff160361202b57600c6000828152602001908152602001600020600201839080600181540180825580915050600190039060005260206000200160009091909190916101000a81548173ffffffffffffffffffffffffffffffffffffffff021916908373ffffffffffffffffffffffffffffffffffffffff16021790555061210d565b8273ffffffffffffffffffffffffffffffffffffffff16600c600083815260200190815260200160002060000160009054906101000a900473ffffffffffffffffffffffffffffffffffffffff1673ffffffffffffffffffffffffffffffffffffffff160361210c57600c6000828152602001908152602001600020600101339080600181540180825580915050600190039060005260206000200160009091909190916101000a81548173ffffffffffffffffffffffffffffffffffffffff021916908373ffffffffffffffffffffffffffffffffffffffff1602179055505b5b808061211890614840565b915050611f3e565b505050565b606061213082612832565b506000600760008481526020019081526020016000208054612151906147b1565b80601f016020809104026020016040519081016040528092919081815260200182805461217d906147b1565b80156121ca5780601f1061219f576101008083540402835291602001916121ca565b820191906000526020600020905b8154815290600101906020018083116121ad57829003601f168201915b5050505050905060006121db61359b565b905060008151036121f0578192505050612233565b60008251111561222557808260405160200161220d929190614b03565b60405160208183030381529060405292505050612233565b61222e846135b2565b925050505b919050565b6001600b6000838152602001908152602001600020600501600082825461225f9190614b27565b9250508190555050565b600060019050919050565b6060600061228260086128f7565b905060008167ffffffffffffffff8111156122a05761229f6143e0565b5b6040519080825280602002602001820160405280156122d957816020015b6122c6613b6c565b8152602001906001900390816122be5790505b5090506000600190505b828110156126b3573373ffffffffffffffffffffffffffffffffffffffff16600b600083815260200190815260200160002060010160009054906101000a900473ffffffffffffffffffffffffffffffffffffffff1673ffffffffffffffffffffffffffffffffffffffff16036126a057600b600082815260200190815260200160002060405180610120016040529081600082015481526020016001820160009054906101000a900473ffffffffffffffffffffffffffffffffffffffff1673ffffffffffffffffffffffffffffffffffffffff1673ffffffffffffffffffffffffffffffffffffffff1681526020016002820160009054906101000a900473ffffffffffffffffffffffffffffffffffffffff1673ffffffffffffffffffffffffffffffffffffffff1673ffffffffffffffffffffffffffffffffffffffff16815260200160038201548152602001600482018054806020026020016040519081016040528092919081815260200182805480156124b857602002820191906000526020600020905b8160009054906101000a900473ffffffffffffffffffffffffffffffffffffffff1673ffffffffffffffffffffffffffffffffffffffff168152602001906001019080831161246e575b50505050508152602001600582015481526020016006820180546124db906147b1565b80601f0160208091040260200160405190810160405280929190818152602001828054612507906147b1565b80156125545780601f1061252957610100808354040283529160200191612554565b820191906000526020600020905b81548152906001019060200180831161253757829003601f168201915b5050505050815260200160078201805461256d906147b1565b80601f0160208091040260200160405190810160405280929190818152602001828054612599906147b1565b80156125e65780601f106125bb576101008083540402835291602001916125e6565b820191906000526020600020905b8154815290600101906020018083116125c957829003601f168201915b505050505081526020016008820180546125ff906147b1565b80601f016020809104026020016040519081016040528092919081815260200182805461262b906147b1565b80156126785780601f1061264d57610100808354040283529160200191612678565b820191906000526020600020905b81548152906001019060200180831161265b57829003601f168201915b505050505081525050828281518110612694576126936147e2565b5b60200260200101819052505b80806126ab90614840565b9150506122e3565b50809250505090565b6000600660008473ffffffffffffffffffffffffffffffffffffffff1673ffffffffffffffffffffffffffffffffffffffff16815260200190815260200160002060008373ffffffffffffffffffffffffffffffffffffffff1673ffffffffffffffffffffffffffffffffffffffff16815260200190815260200160002060009054906101000a900460ff16905092915050565b60007f80ac58cd000000000000000000000000000000000000000000000000000000007bffffffffffffffffffffffffffffffffffffffffffffffffffffffff1916827bffffffffffffffffffffffffffffffffffffffffffffffffffffffff1916148061281b57507f5b5e139f000000000000000000000000000000000000000000000000000000007bffffffffffffffffffffffffffffffffffffffffffffffffffffffff1916827bffffffffffffffffffffffffffffffffffffffffffffffffffffffff1916145b8061282b575061282a8261361b565b5b9050919050565b60008061283e83613685565b9050600073ffffffffffffffffffffffffffffffffffffffff168173ffffffffffffffffffffffffffffffffffffffff16036128b157826040517f7e2732890000000000000000000000000000000000000000000000000000000081526004016128a891906142bf565b60405180910390fd5b80915050919050565b60006005600083815260200190815260200160002060009054906101000a900473ffffffffffffffffffffffffffffffffffffffff169050919050565b600081600001549050919050565b600033905090565b61291a83838360016136c2565b505050565b6001816000016000828254019250508190555050565b60008061294184613685565b9050600073ffffffffffffffffffffffffffffffffffffffff168373ffffffffffffffffffffffffffffffffffffffff161461298357612982818486613887565b5b600073ffffffffffffffffffffffffffffffffffffffff168173ffffffffffffffffffffffffffffffffffffffff1614612a14576129c56000856000806136c2565b6001600460008373ffffffffffffffffffffffffffffffffffffffff1673ffffffffffffffffffffffffffffffffffffffff168152602001908152602001600020600082825403925050819055505b600073ffffffffffffffffffffffffffffffffffffffff168573ffffffffffffffffffffffffffffffffffffffff1614612a97576001600460008773ffffffffffffffffffffffffffffffffffffffff1673ffffffffffffffffffffffffffffffffffffffff168152602001908152602001600020600082825401925050819055505b846003600086815260200190815260200160002060006101000a81548173ffffffffffffffffffffffffffffffffffffffff021916908373ffffffffffffffffffffffffffffffffffffffff160217905550838573ffffffffffffffffffffffffffffffffffffffff168273ffffffffffffffffffffffffffffffffffffffff167fddf252ad1be2c89b69c2b068fc378daa952ba7f163c4a11628f55a4df523b3ef60405160405180910390a4809150509392505050565b8073ffffffffffffffffffffffffffffffffffffffff168373ffffffffffffffffffffffffffffffffffffffff1603612c2c57600082905060005b8151811015612c29573373ffffffffffffffffffffffffffffffffffffffff16828281518110612bbd57612bbc6147e2565b5b602002602001015173ffffffffffffffffffffffffffffffffffffffff1603612c1657818181518110612bf357612bf26147e2565b5b60200260200101600073ffffffffffffffffffffffffffffffffffffffff168152505b8080612c2190614840565b915050612b8a565b50505b505050565b8073ffffffffffffffffffffffffffffffffffffffff168373ffffffffffffffffffffffffffffffffffffffff1603612d0e57600082905060005b8151811015612d0b578273ffffffffffffffffffffffffffffffffffffffff16828281518110612c9f57612c9e6147e2565b5b602002602001015173ffffffffffffffffffffffffffffffffffffffff1603612cf857818181518110612cd557612cd46147e2565b5b60200260200101600073ffffffffffffffffffffffffffffffffffffffff168152505b8080612d0390614840565b915050612c6c565b50505b505050565b60008073ffffffffffffffffffffffffffffffffffffffff168373ffffffffffffffffffffffffffffffffffffffff1614158015612dcb57508273ffffffffffffffffffffffffffffffffffffffff168473ffffffffffffffffffffffffffffffffffffffff161480612d8c5750612d8b84846126bc565b5b80612dca57508273ffffffffffffffffffffffffffffffffffffffff16612db2836128ba565b73ffffffffffffffffffffffffffffffffffffffff16145b5b90509392505050565b600073ffffffffffffffffffffffffffffffffffffffff168273ffffffffffffffffffffffffffffffffffffffff1603612e465760006040517f64a0ae92000000000000000000000000000000000000000000000000000000008152600401612e3d9190613e09565b60405180910390fd5b6000612e5483836000612935565b9050600073ffffffffffffffffffffffffffffffffffffffff168173ffffffffffffffffffffffffffffffffffffffff1603612ec757816040517f7e273289000000000000000000000000000000000000000000000000000000008152600401612ebe91906142bf565b60405180910390fd5b8373ffffffffffffffffffffffffffffffffffffffff168173ffffffffffffffffffffffffffffffffffffffff1614612f3b578382826040517f64283d7b000000000000000000000000000000000000000000000000000000008152600401612f32939291906148e8565b60405180910390fd5b50505050565b600073ffffffffffffffffffffffffffffffffffffffff168273ffffffffffffffffffffffffffffffffffffffff1603612fb35760006040517f64a0ae92000000000000000000000000000000000000000000000000000000008152600401612faa9190613e09565b60405180910390fd5b6000612fc183836000612935565b9050600073ffffffffffffffffffffffffffffffffffffffff168173ffffffffffffffffffffffffffffffffffffffff16146130355760006040517f73c6ac6e00000000000000000000000000000000000000000000000000000000815260040161302c9190613e09565b60405180910390fd5b505050565b8060076000848152602001908152602001600020908161305a9190614cfd565b507ff8e1a15aba9398e019f0b49df1a4fde98ee17ae345cb5f6b5e2c27f5033e8ce78260405161308a91906142bf565b60405180910390a15050565b83600b60008681526020019081526020016000206000018190555033600b600086815260200190815260200160002060010160006101000a81548173ffffffffffffffffffffffffffffffffffffffff021916908373ffffffffffffffffffffffffffffffffffffffff16021790555033600b600086815260200190815260200160002060020160006101000a81548173ffffffffffffffffffffffffffffffffffffffff021916908373ffffffffffffffffffffffffffffffffffffffff1602179055506000600b6000868152602001908152602001600020600301819055506001600b60008681526020019081526020016000206005018190555082600b600086815260200190815260200160002060060190816131b69190614cfd565b5081600b600086815260200190815260200160002060070190816131da9190614cfd565b5080600b600086815260200190815260200160002060080190816131fe9190614cfd565b50837f6b0636364e6bb3c1836823c4035fa96c342686af76b1ec221f6fec7b83fc272033336000600b60008a8152602001908152602001600020600401600b60008b81526020019081526020016000206005015489896040516132679796959493929190614f0c565b60405180910390a250505050565b600073ffffffffffffffffffffffffffffffffffffffff168273ffffffffffffffffffffffffffffffffffffffff16036132e657816040517f5b08ba180000000000000000000000000000000000000000000000000000000081526004016132dd9190613e09565b60405180910390fd5b80600660008573ffffffffffffffffffffffffffffffffffffffff1673ffffffffffffffffffffffffffffffffffffffff16815260200190815260200160002060008473ffffffffffffffffffffffffffffffffffffffff1673ffffffffffffffffffffffffffffffffffffffff16815260200190815260200160002060006101000a81548160ff0219169083151502179055508173ffffffffffffffffffffffffffffffffffffffff168373ffffffffffffffffffffffffffffffffffffffff167f17307eab39ab6107e8899845ad3d59bd9653f200f220920489ca2b5937696c31836040516133d79190613c98565b60405180910390a3505050565b60008373ffffffffffffffffffffffffffffffffffffffff163b1115613595578273ffffffffffffffffffffffffffffffffffffffff1663150b7a02613428612905565b8685856040518563ffffffff1660e01b815260040161344a9493929190614fe5565b6020604051808303816000875af192505050801561348657506040513d601f19601f820116820180604052508101906134839190615046565b60015b61350a573d80600081146134b6576040519150601f19603f3d011682016040523d82523d6000602084013e6134bb565b606091505b50600081510361350257836040517f64a0ae920000000000000000000000000000000000000000000000000000000081526004016134f99190613e09565b60405180910390fd5b805181602001fd5b63150b7a0260e01b7bffffffffffffffffffffffffffffffffffffffffffffffffffffffff1916817bffffffffffffffffffffffffffffffffffffffffffffffffffffffff19161461359357836040517f64a0ae9200000000000000000000000000000000000000000000000000000000815260040161358a9190613e09565b60405180910390fd5b505b50505050565b606060405180602001604052806000815250905090565b60606135bd82612832565b5060006135c861359b565b905060008151116135e85760405180602001604052806000815250613613565b806135f28461394b565b604051602001613603929190614b03565b6040516020818303038152906040525b915050919050565b60007f01ffc9a7000000000000000000000000000000000000000000000000000000007bffffffffffffffffffffffffffffffffffffffffffffffffffffffff1916827bffffffffffffffffffffffffffffffffffffffffffffffffffffffff1916149050919050565b60006003600083815260200190815260200160002060009054906101000a900473ffffffffffffffffffffffffffffffffffffffff169050919050565b80806136fb5750600073ffffffffffffffffffffffffffffffffffffffff168273ffffffffffffffffffffffffffffffffffffffff1614155b1561382f57600061370b84612832565b9050600073ffffffffffffffffffffffffffffffffffffffff168373ffffffffffffffffffffffffffffffffffffffff161415801561377657508273ffffffffffffffffffffffffffffffffffffffff168173ffffffffffffffffffffffffffffffffffffffff1614155b8015613789575061378781846126bc565b155b156137cb57826040517fa9fbf51f0000000000000000000000000000000000000000000000000000000081526004016137c29190613e09565b60405180910390fd5b811561382d57838573ffffffffffffffffffffffffffffffffffffffff168273ffffffffffffffffffffffffffffffffffffffff167f8c5be1e5ebec7d5bd14f71427d1e84f3dd0314c0f7b2291e5b200ac8c7c3b92560405160405180910390a45b505b836005600085815260200190815260200160002060006101000a81548173ffffffffffffffffffffffffffffffffffffffff021916908373ffffffffffffffffffffffffffffffffffffffff16021790555050505050565b613892838383612d13565b61394657600073ffffffffffffffffffffffffffffffffffffffff168373ffffffffffffffffffffffffffffffffffffffff160361390757806040517f7e2732890000000000000000000000000000000000000000000000000000000081526004016138fe91906142bf565b60405180910390fd5b81816040517f177e802f00000000000000000000000000000000000000000000000000000000815260040161393d929190615073565b60405180910390fd5b505050565b60606000600161395a84613a19565b01905060008167ffffffffffffffff811115613979576139786143e0565b5b6040519080825280601f01601f1916602001820160405280156139ab5781602001600182028036833780820191505090505b509050600082602001820190505b600115613a0e578080600190039150507f3031323334353637383961626364656600000000000000000000000000000000600a86061a8153600a8581613a0257613a0161498b565b5b049450600085036139b9575b819350505050919050565b600080600090507a184f03e93ff9f4daa797ed6e38ed64bf6a1f0100000000000000008310613a77577a184f03e93ff9f4daa797ed6e38ed64bf6a1f0100000000000000008381613a6d57613a6c61498b565b5b0492506040810190505b6d04ee2d6d415b85acef81000000008310613ab4576d04ee2d6d415b85acef81000000008381613aaa57613aa961498b565b5b0492506020810190505b662386f26fc100008310613ae357662386f26fc100008381613ad957613ad861498b565b5b0492506010810190505b6305f5e1008310613b0c576305f5e1008381613b0257613b0161498b565b5b0492506008810190505b6127108310613b31576127108381613b2757613b2661498b565b5b0492506004810190505b60648310613b545760648381613b4a57613b4961498b565b5b0492506002810190505b600a8310613b63576001810190505b80915050919050565b60405180610120016040528060008152602001600073ffffffffffffffffffffffffffffffffffffffff168152602001600073ffffffffffffffffffffffffffffffffffffffff1681526020016000815260200160608152602001600081526020016060815260200160608152602001606081525090565b6000604051905090565b600080fd5b600080fd5b60007fffffffff0000000000000000000000000000000000000000000000000000000082169050919050565b613c2d81613bf8565b8114613c3857600080fd5b50565b600081359050613c4a81613c24565b92915050565b600060208284031215613c6657613c65613bee565b5b6000613c7484828501613c3b565b91505092915050565b60008115159050919050565b613c9281613c7d565b82525050565b6000602082019050613cad6000830184613c89565b92915050565b600081519050919050565b600082825260208201905092915050565b60005b83811015613ced578082015181840152602081019050613cd2565b60008484015250505050565b6000601f19601f8301169050919050565b6000613d1582613cb3565b613d1f8185613cbe565b9350613d2f818560208601613ccf565b613d3881613cf9565b840191505092915050565b60006020820190508181036000830152613d5d8184613d0a565b905092915050565b6000819050919050565b613d7881613d65565b8114613d8357600080fd5b50565b600081359050613d9581613d6f565b92915050565b600060208284031215613db157613db0613bee565b5b6000613dbf84828501613d86565b91505092915050565b600073ffffffffffffffffffffffffffffffffffffffff82169050919050565b6000613df382613dc8565b9050919050565b613e0381613de8565b82525050565b6000602082019050613e1e6000830184613dfa565b92915050565b600081519050919050565b600082825260208201905092915050565b6000819050602082019050919050565b613e5981613d65565b82525050565b6000613e6a82613dc8565b9050919050565b613e7a81613e5f565b82525050565b600081519050919050565b600082825260208201905092915050565b6000819050602082019050919050565b613eb581613de8565b82525050565b6000613ec78383613eac565b60208301905092915050565b6000602082019050919050565b6000613eeb82613e80565b613ef58185613e8b565b9350613f0083613e9c565b8060005b83811015613f31578151613f188882613ebb565b9750613f2383613ed3565b925050600181019050613f04565b5085935050505092915050565b600082825260208201905092915050565b6000613f5a82613cb3565b613f648185613f3e565b9350613f74818560208601613ccf565b613f7d81613cf9565b840191505092915050565b600061012083016000830151613fa16000860182613e50565b506020830151613fb46020860182613e71565b506040830151613fc76040860182613e71565b506060830151613fda6060860182613e50565b5060808301518482036080860152613ff28282613ee0565b91505060a083015161400760a0860182613e50565b5060c083015184820360c086015261401f8282613f4f565b91505060e083015184820360e08601526140398282613f4f565b9150506101008301518482036101008601526140558282613f4f565b9150508091505092915050565b600061406e8383613f88565b905092915050565b6000602082019050919050565b600061408e82613e24565b6140988185613e2f565b9350836020820285016140aa85613e40565b8060005b858110156140e657848403895281516140c78582614062565b94506140d283614076565b925060208a019950506001810190506140ae565b50829750879550505050505092915050565b600060208201905081810360008301526141128184614083565b905092915050565b61412381613de8565b811461412e57600080fd5b50565b6000813590506141408161411a565b92915050565b6000806040838503121561415d5761415c613bee565b5b600061416b85828601614131565b925050602061417c85828601613d86565b9150509250929050565b600067ffffffffffffffff82169050919050565b6141a381614186565b82525050565b60006020820190506141be600083018461419a565b92915050565b6000806000606084860312156141dd576141dc613bee565b5b60006141eb86828701614131565b93505060206141fc86828701614131565b925050604061420d86828701613d86565b9150509250925092565b60006020828403121561422d5761422c613bee565b5b600061423b84828501614131565b91505092915050565b61424d81614186565b811461425857600080fd5b50565b60008135905061426a81614244565b92915050565b6000806040838503121561428757614286613bee565b5b600061429585828601613d86565b92505060206142a68582860161425b565b9150509250929050565b6142b981613d65565b82525050565b60006020820190506142d460008301846142b0565b92915050565b6000610120830160008301516142f36000860182613e50565b5060208301516143066020860182613e71565b5060408301516143196040860182613e71565b50606083015161432c6060860182613e50565b50608083015184820360808601526143448282613ee0565b91505060a083015161435960a0860182613e50565b5060c083015184820360c08601526143718282613f4f565b91505060e083015184820360e086015261438b8282613f4f565b9150506101008301518482036101008601526143a78282613f4f565b9150508091505092915050565b600060208201905081810360008301526143ce81846142da565b905092915050565b600080fd5b600080fd5b7f4e487b7100000000000000000000000000000000000000000000000000000000600052604160045260246000fd5b61441882613cf9565b810181811067ffffffffffffffff82111715614437576144366143e0565b5b80604052505050565b600061444a613be4565b9050614456828261440f565b919050565b600067ffffffffffffffff821115614476576144756143e0565b5b61447f82613cf9565b9050602081019050919050565b82818337600083830152505050565b60006144ae6144a98461445b565b614440565b9050828152602081018484840111156144ca576144c96143db565b5b6144d584828561448c565b509392505050565b600082601f8301126144f2576144f16143d6565b5b813561450284826020860161449b565b91505092915050565b60008060006060848603121561452457614523613bee565b5b600084013567ffffffffffffffff81111561454257614541613bf3565b5b61454e868287016144dd565b935050602084013567ffffffffffffffff81111561456f5761456e613bf3565b5b61457b868287016144dd565b925050604084013567ffffffffffffffff81111561459c5761459b613bf3565b5b6145a8868287016144dd565b9150509250925092565b6145bb81613c7d565b81146145c657600080fd5b50565b6000813590506145d8816145b2565b92915050565b600080604083850312156145f5576145f4613bee565b5b600061460385828601614131565b9250506020614614858286016145c9565b9150509250929050565b600067ffffffffffffffff821115614639576146386143e0565b5b61464282613cf9565b9050602081019050919050565b600061466261465d8461461e565b614440565b90508281526020810184848401111561467e5761467d6143db565b5b61468984828561448c565b509392505050565b600082601f8301126146a6576146a56143d6565b5b81356146b684826020860161464f565b91505092915050565b600080600080608085870312156146d9576146d8613bee565b5b60006146e787828801614131565b94505060206146f887828801614131565b935050604061470987828801613d86565b925050606085013567ffffffffffffffff81111561472a57614729613bf3565b5b61473687828801614691565b91505092959194509250565b6000806040838503121561475957614758613bee565b5b600061476785828601614131565b925050602061477885828601614131565b9150509250929050565b7f4e487b7100000000000000000000000000000000000000000000000000000000600052602260045260246000fd5b600060028204905060018216806147c957607f821691505b6020821081036147dc576147db614782565b5b50919050565b7f4e487b7100000000000000000000000000000000000000000000000000000000600052603260045260246000fd5b7f4e487b7100000000000000000000000000000000000000000000000000000000600052601160045260246000fd5b600061484b82613d65565b91507fffffffffffffffffffffffffffffffffffffffffffffffffffffffffffffffff820361487d5761487c614811565b5b600182019050919050565b6000819050919050565b6000819050919050565b60006148b76148b26148ad84614888565b614892565b614186565b9050919050565b6148c78161489c565b82525050565b60006020820190506148e260008301846148be565b92915050565b60006060820190506148fd6000830186613dfa565b61490a60208301856142b0565b6149176040830184613dfa565b949350505050565b7f4f6e6c79204e4654206f776e65722063616e20706572666f726d207468697300600082015250565b6000614955601f83613cbe565b91506149608261491f565b602082019050919050565b6000602082019050818103600083015261498481614948565b9050919050565b7f4e487b7100000000000000000000000000000000000000000000000000000000600052601260045260246000fd5b60006149c582613d65565b91506149d083613d65565b9250826149e0576149df61498b565b5b828204905092915050565b60006149f682613d65565b9150614a0183613d65565b9250828203905081811115614a1957614a18614811565b5b92915050565b6000614a2a82614186565b9150614a3583614186565b9250828201905067ffffffffffffffff811115614a5557614a54614811565b5b92915050565b7f537562736372697074696f6e204e6f742052656e657761626c65000000000000600082015250565b6000614a91601a83613cbe565b9150614a9c82614a5b565b602082019050919050565b60006020820190508181036000830152614ac081614a84565b9050919050565b600081905092915050565b6000614add82613cb3565b614ae78185614ac7565b9350614af7818560208601613ccf565b80840191505092915050565b6000614b0f8285614ad2565b9150614b1b8284614ad2565b91508190509392505050565b6000614b3282613d65565b9150614b3d83613d65565b9250828201905080821115614b5557614b54614811565b5b92915050565b60008190508160005260206000209050919050565b60006020601f8301049050919050565b600082821b905092915050565b600060088302614bbd7fffffffffffffffffffffffffffffffffffffffffffffffffffffffffffffffff82614b80565b614bc78683614b80565b95508019841693508086168417925050509392505050565b6000614bfa614bf5614bf084613d65565b614892565b613d65565b9050919050565b6000819050919050565b614c1483614bdf565b614c28614c2082614c01565b848454614b8d565b825550505050565b600090565b614c3d614c30565b614c48818484614c0b565b505050565b5b81811015614c6c57614c61600082614c35565b600181019050614c4e565b5050565b601f821115614cb157614c8281614b5b565b614c8b84614b70565b81016020851015614c9a578190505b614cae614ca685614b70565b830182614c4d565b50505b505050565b600082821c905092915050565b6000614cd460001984600802614cb6565b1980831691505092915050565b6000614ced8383614cc3565b9150826002028217905092915050565b614d0682613cb3565b67ffffffffffffffff811115614d1f57614d1e6143e0565b5b614d2982546147b1565b614d34828285614c70565b600060209050601f831160018114614d675760008415614d55578287015190505b614d5f8582614ce1565b865550614dc7565b601f198416614d7586614b5b565b60005b82811015614d9d57848901518255600182019150602085019450602081019050614d78565b86831015614dba5784890151614db6601f891682614cc3565b8355505b6001600288020188555050505b505050505050565b614dd881613e5f565b82525050565b6000614df9614df4614def84614888565b614892565b613d65565b9050919050565b614e0981614dde565b82525050565b600081549050919050565b600082825260208201905092915050565b60008190508160005260206000209050919050565b60008160001c9050919050565b600073ffffffffffffffffffffffffffffffffffffffff82169050919050565b6000614e80614e7b83614e40565b614e4d565b9050919050565b6000614e938254614e6d565b9050919050565b6000600182019050919050565b6000614eb282614e0f565b614ebc8185614e1a565b9350614ec783614e2b565b8060005b83811015614eff57614edc82614e87565b614ee68882613ebb565b9750614ef183614e9a565b925050600181019050614ecb565b5085935050505092915050565b600060e082019050614f21600083018a614dcf565b614f2e6020830189614dcf565b614f3b6040830188614e00565b8181036060830152614f4d8187614ea7565b9050614f5c60808301866142b0565b81810360a0830152614f6e8185613d0a565b905081810360c0830152614f828184613d0a565b905098975050505050505050565b600081519050919050565b600082825260208201905092915050565b6000614fb782614f90565b614fc18185614f9b565b9350614fd1818560208601613ccf565b614fda81613cf9565b840191505092915050565b6000608082019050614ffa6000830187613dfa565b6150076020830186613dfa565b61501460408301856142b0565b81810360608301526150268184614fac565b905095945050505050565b60008151905061504081613c24565b92915050565b60006020828403121561505c5761505b613bee565b5b600061506a84828501615031565b91505092915050565b60006040820190506150886000830185613dfa565b61509560208301846142b0565b939250505056fea2646970667358221220f248f5d0e420fee17be0386a296d5f774cca803c6d8bd25e6758dd7ab0c19b8f64736f6c63430008140033",
  "linkReferences": {},
  "deployedLinkReferences": {}
}